:020000040800F2
:1000000000C000203D5D0008899A00088B9A000816
:100010008D9A00088F9A0008919A0008000000004D
:10002000000000000000000000000000939A00089B
:10003000959A000800000000879A0008C162000835
:10004000879A0008879A0008879A0008879A00080C
:10005000879A0008879A0008311D0008371D00089C
:100060003D1D0008431D0008491D0008A11A000895
:10007000B51A0008C91A0008DD1A0008F11A0008AC
:10008000051B0008191B0008879A0008879A0008BA
:10009000879A0008879A0008879A00084F1D000871
:1000A000879A0008879A0008879A0008879A0008AC
:1000B000879A0008879A0008879A0008879A00089C
:1000C000879A0008879A0008879A0008879A00088C
:1000D000879A00087D3E0008879A0008879A0008E2
:1000E0006B1D0008879A0008879A0008879A000805
:1000F000879A0008879A0008879A0008879A00085C
:10010000879A0008879A0008879A0008879A00084B
:10011000879A0008879A0008879A0008879A00083B
:100120002D1B0008411B0008551B0008691B000817
:100130000268136823F010031360002243681A60FA
:10014000836803B11847704770B503680D4634499A
:1001500004468B424FEA424617D1324AD16841F4F5
:100160000071D160D16821F40071D160916941F4CE
:1001700000719161002D48D0234600212A482B4A66
:100180006060083801F024FC07E0294A93422CD132
:10019000244A936943F4806393614FF48072236827
:1001A0005A6000229E60DA621A635A63DA601A614A
:1001B0003DB1626803F14C0191609A6842F480722B
:1001C0009A609A6842F001029A60DA6C9A6842F08A
:1001D00008029A609A681107FCD49A6842F00402F7
:1001E0009A609A685207FCD470BD124A9342D4D1E7
:1001F0000C498A6942F400428A6135B10E482346AF
:1002000060600A4A04215838BCE74FF480725A6093
:1002100000229E60DA621A635A63DA601A61D0E7DC
:100220000024014000100240080002403101000893
:1002300000280140003C014058040240092903689D
:1002400007D8186901EB410102FA01F10143196174
:1002500070470A39D86801EB410102FA01F1014304
:10026000D96070470023F0B54D1E0068ECB20F2C2A
:10027000C362036343632CD899420AD9062B09D081
:10028000D45C466B03EB8307BC40344344630133C7
:10029000F2E7062399420BD90C2B0AD0D45C03EB6E
:1002A0008306076B1E3EB4403C4304630133F1E711
:1002B0000C23994209D9D45C03EB8306C76A3C3E00
:1002C000B4403C43C4620133F3E7C36A43EA0555D3
:1002D000C562F0BD43685960DA6040F28A521A6024
:1002E0001A6842F001021A600268936843F4A0039E
:1002F0009360704738B500254FF0FF330446058002
:100300004580456083600C3005F0B6F831232561E7
:10031000636125766576204638BD00002DE9FF41F2
:1003200001262D4C074644F00B0304A840F8103D6D
:10033000022103F067FB009B04A823F0FF0203F0F7
:100340000F0306FA03F3536144F00C0340F80C3D2D
:10035000022103F057FB019B04A823F0FF0203F0E6
:100360000F0306FA03F353611C4D44F00A0340F8EF
:10037000083D082103F046FB0DF1100845F00B0382
:1003800048F8043D4046022103F03CFB25F0FF0302
:1003900005F00F0545F00B0506FA05F55D61022134
:1003A00044F009034046039303F02CFB24F0FF02C2
:1003B00004F00F0444F0090306FA03F31361936891
:1003C00044F00A0406FA04F41C4214BF3346002326
:1003D0003B7604B0BDE8F081001C014000080140FC
:1003E000436901332D2B43610BD101220D4B23F0C7
:1003F000FF0103F00F0343F00B0302FA03F34B6119
:100400007047322BFCD10122074B23F0FF0103F090
:100410000F0343F00B0302FA03F34B614FF48053D5
:10042000EDE700BF00080140001C014070B5564CCC
:100430000646B4F8DE30B4F8DC20013303F01F03C5
:1004400093420D460FD0142007F05AFB00284CD1E0
:100450001421B4F8DE30E218013303F01F0382F8F0
:10046000E010A4F8DE300121484B23F0FF0003F038
:100470000F03826843F00A0399400A426ED1338821
:10048000B3F57A6F37D27388B3F57A6F33D2B36826
:10049000642B28BF64230A2B38BF0A2364220A3B3B
:1004A00053435A22B3FBF2F30A2B3DD8384BB3F82F
:1004B000680005F0F1FFB4F8DE30B4F8DC20013359
:1004C00003F01F03F8B193421CD08D2007F018FBF6
:1004D00098B98D21B4F8DE30E218013303F01F0320
:1004E00082F8E010A4F8DE300CE0204606F0C1F8F7
:1004F0000028ADD1B7E70A23D0E7234806F0B9F8C2
:100500000028E6D170BD9342FCD08E2007F0F8FAA7
:1005100020B9B4F8DE308E21E218DEE71A4806F082
:10052000A8F80028F5D1EDE7102B17D8B4F8DE3085
:10053000B4F8DC20013303F01F039342E2D08C2097
:1005400007F0DEFA20B9B4F8DE308C21E218C4E7F7
:100550000D4806F08EF80028F5D1D3E794F8A030C6
:10056000732B09D18368194201D11E2DCAD90948BC
:10057000BDE8704006F096BC8C2BC3D1836819424D
:10058000F5D1102DF2E700BF78130020001C0140C8
:10059000600400201814002038B5036904460133B4
:1005A000092B036118D941F699120C3004F067FF4A
:1005B000D4E903530A2B05D129462046FFF736FF1D
:1005C000A56009E0A268AB1AD9170B444B40022B77
:1005D000F2DC0DB9002AEFD138BD0000164B10B582
:1005E00023F0FF00C468012003F00F0343F00B0366
:1005F00000FA03F3234213D091424FF44D6344F6C3
:100600001F640ED98A1A5343A34209D90B4B23F016
:10061000FF0203F00F0343F00B0300FA03F313612F
:1006200010BD521A5343A34281BF4FF48052034B73
:1006300023F0FF031A61F3E700080140001C0140AA
:10064000437E10B5FBB940F2312302889A421AD892
:100650000123104C4376B4F8DE30B4F8DC200133CB
:1006600003F01F0393420ED00E2007F049FA58B949
:100670000E21B4F8DE30E218013303F01F0382F8D4
:10068000E010A4F8DE3010BD204605F0F2FF00288F
:10069000EED1F8E778130020C0F50063DA171344B1
:1006A0005340272B0ADD40F6D813181AC2171044FE
:1006B00050402828B4BF1846002070474FF400600F
:1006C00070470000438810B5B3F5006F06D040F6C0
:1006D000D812934219D00A21134A0AE02021134B61
:1006E000134A23F0FF03DB6813F4804F114B08BF5C
:1006F0001A460023406832F81340A0420FD364200A
:10070000CB1A4343B3FBF1F010BD084B202123F07B
:10071000FF03DB68084A13F4804F084BE7E7013317
:100720009942E8D10020EFE72011010800100140B4
:10073000A010010834110108E0100108741101082B
:100740002DE9F84316460022BDF8205003800446E8
:1007500042618846FFF774FF2846FFF79DFF6388D4
:100760000746834223D02288B2F57A6F1ED2B3F5B2
:100770007A6F1BD2D0B9654DB5F8DE30B5F8DC2004
:10078000013303F01F039A4210D0722007F0B8F92A
:10079000002840F08E807221B5F8DE30EA1801336F
:1007A00003F01F0382F8E010A5F8DE306780A6EBA7
:1007B0000806B6B2626808EB06039A420ED0636080
:1007C0002046FFF77FFFA3680146013378D1A06080
:1007D0004FF6FF7204F10C0004F051FE01274C4B60
:1007E00023F0FF0203F00F03926843F00A0307FAB5
:1007F00003F313EA020714BF4FF001094FF0000999
:10080000237E4B4535D0414DB5F8DE30B5F8DC20C0
:10081000013303F01F03934229D0072007F070F93A
:10082000002851D10721B5F8DE30EA18013303F072
:100830001F0382F8E010A5F8DE30C7B1B5F8DE304E
:10084000B5F8DC20013303F01F0393420FD08F2053
:1008500007F056F900283DD18F21B5F8DE30EA18AF
:10086000013303F01F0382F8E010A5F8DE3084F8AE
:1008700018904FF44D6303FB06F1264A914211D8BC
:1008800003FB08F393420DD857B3637E53B901229B
:10089000214B23F0FF0103F00F0343F00B0302FA97
:1008A00003F30B61324641462046BDE8F843FFF7AB
:1008B00095BE284605F0DDFE00287FF46CAF75E795
:1008C0002046FFF769FE89E7284605F0D2FE00289A
:1008D000A8D1B2E70D4805F0CCFE0028BCD1C6E790
:1008E0000E4A914201D993420CD8BFF35B8F0C4B57
:1008F00053E8002F42F0007243E800210029F7D1AD
:10090000BFF35B8F00236376CCE700BF7813002032
:10091000001C01409F8F3E000008014000D43000C1
:10092000701300200148FFF7E5BC00BFE001002084
:10093000054AD36943F0C053D361044A136843F4B2
:1009400080731360704700BF0010024000700040C9
:10095000044B1A6A42F480321A621A6A22F4803214
:100960001A6270470010024010B583609DF80C3089
:10097000C0E9001203739DF808300022437300237E
:10098000C0E90423C0E906230023036210BD000070
:1009900038B504460D46082103F034F8227B23685D
:1009A000012A18BF012223F0FF0103F00F030BBF40
:1009B00002FA03F302FA03F30B614B618DB1204697
:1009C00003F03AF8226802F00F0301229A40174B15
:1009D000996811439960D9681143D96019680A432D
:1009E0001A60134D636845F00F05AB420CD002212D
:1009F000201D03F007F80122636823F0FF0103F0D4
:100A00000F0302FA03F30B61A3689D420DD002218C
:100A100004F1080002F0F6FF0122A36823F0FF01B1
:100A200003F00F0302FA03F34B6138BD00040140E9
:100A300000200140000000002DE9F0474FF00108C0
:100A4000474B02685D6902F00F0208FA02F2154096
:100A5000044638D05A6105F04FFC227B81468A4615
:100A6000236802BB23F0FF02926803F00F0308FA29
:100A700003F3134214BF454600253DB30021C4E9EA
:100A8000049A2162204600F05FFAD4E90623B9EB0C
:100A900002066AEB030728A3D3E90023B242BB4155
:100AA0000DDA01250FE023F0FF02926803F00F0337
:100AB00008FA03F313420CBF01250025DDE70621E8
:100AC000204600F041FA2846BDE8F087C4E9069ABE
:100AD0000121204600F038FAD4E90423D4E90601C4
:100AE000801A61EB03018046894615A1D1E9000116
:100AF000404571EB090304DB0221204600F024FA93
:100B0000CFE711A1D1E9000110EB080241EB090385
:100B10000FA7D7E900679F4208BF964201D307217C
:100B2000EBE70DA1D1E90001404571EB0903B8DA0B
:100B30000821E2E7AFF300807FB2E60E000000007C
:100B4000FF64CD1D00000000C0CC9C9AFFFFFFFF9A
:100B5000BF878B3B000000003FFDFDA000000000B0
:100B60000004014038B501230268044622F0FF0169
:100B700002F00F029340027B8AB98A681A4214BFBE
:100B8000012300238BB105F0B7FBD4E90423821ABB
:100B900061EB030314461D462046294638BD8A688A
:100BA0001A420CBF01230023ECE700240025F3E7E1
:100BB000036AD0B51E07044638D4FFF7D3FF236A73
:100BC0000646D8070F460DD419A1D1E90001B0425D
:100BD00071EB070206DA43F001032362032120468A
:100BE00000F0B2F9236A99070DD413A1D1E90001ED
:100BF000B04271EB070206DA43F0020323620421DC
:100C0000204600F0A1F9236A5A070FD40CA1D1E9BC
:100C10000001B04271EB070208DA43F004032362DB
:100C20002046BDE8D040052100F08EB9D0BD00BF00
:100C30000065CD1D0000000000F1536500000000BC
:100C400000BBEEA0000000001822024B033802FB9C
:100C500000307047EC1200200B4B1B6D952B11D808
:100C6000437B033BDAB2022A0CD802290AD11821AD
:100C7000064A01FB032393F85F30DB0702D403200D
:100C800002F082BF704700BF600400209012002075
:100C90000439012902D8002002F076BF70470122F2
:100CA000436823F0FF0103F00F0302FA03F34B61E3
:100CB000836823F0FF0103F00F039A400A61704735
:100CC0000122836823F0FF0103F00F0302FA03F30C
:100CD0004B61436823F0FF0103F00F039A400A6160
:100CE00070470000C21E022A38B50C461ED82822C2
:100CF0000F4D02FB0055FFF7A7FF2146034604F105
:100D0000180251F8044B914243F8044BF9D1C378CF
:100D1000012013F0020F6B6823F0FF0203F00F03B2
:100D200000FA03F314BF5361136138BD0020FCE7E0
:100D30002802002070B50A4C0646A08D0FF066FD13
:100D400008490FF0B7FD054630460FF05BFD014640
:100D500028460FF0AFFD0FF0AFFF80B2A08770BD47
:100D6000000400400AD7233CF0B5002485B00121DF
:100D70003348FFF70DFE01213248FFF709FE01213C
:100D80003148FFF705FE01213048FFF701FE012140
:100D90002F48FFF7FDFD01212E48FFF7F9FD012146
:100DA0002D48FFF7F5FD01212C48FFF7F1FD01214A
:100DB0002B48FFF7EDFD2B4B2B4A02932B4B4FF4A7
:100DC000167143F008030393536802A843F4406389
:100DD00053604FF47A7203F029FB062301220321AA
:100DE000CDE9004402A803F061FB2046FFF7A2FF13
:100DF000029A0F21138A03A823F008031B041B0C7B
:100E00001382138C032443F48073138402F0FAFDDD
:100E10000227174E2046FFF717FF1821054604F05A
:100E2000C5FB38B9FF23AB7033682C706B60337926
:100E30006F702B720134E4B2062CEBD105B0F0BD1B
:100E4000280200205002002078020020A00200208A
:100E5000C8020020F00200201803002040030020F8
:100E60006803002000040040000001400010014021
:100E7000B41101082822424338B51A4B9D189958DD
:100E8000012221F0FF0301F00F018A40297B9B68BA
:100E900001BB134214BF012100210123124C8340E6
:100EA0001BB2B4F90020D1B1134328462380FFF7C9
:100EB000C3FD70B1238863B1BFF35B8F0B4B53E865
:100EC000002F42F0805243E800210029F7D1BFF300
:100ED0005B8F38BD13420CBF01210021DDE722EA00
:100EE0000303E2E728020020FC0100207013002029
:100EF0002DE9F04100262827104CDFF8488025888E
:100F000055B1092E08D0EB0703D507FB0680FFF784
:100F10004FFE01366D08F3E7238863B1BFF35B8FA3
:100F2000074B53E8002F42F0805243E8002100298C
:100F3000F7D1BFF35B8FBDE8F08100BFFC0100205B
:100F40007013002028020020F8B505460C4609B9A8
:100F500003F060FB2146284604F0DEF821462846CF
:100F600003F0F2FA224629464D4808F097FB002884
:100F700040F09580224629464A4805F0DFFF0028C8
:100F800040F08D806B7B082B0FD8DFE803F0053C29
:100F90004C5265747E7E7E0029464348224601F00D
:100FA000EFF92146284604F095FB404B1B78002BB7
:100FB00075D1062C03D85A23E340DB076FD43C4994
:100FC0004E880B88701C00F00700984267D0394F9C
:100FD0006D7B3B68384A0E4402F8235002EB8302D3
:100FE0005470364C33712488013354800722B3FB8C
:100FF000F2F2C2EBC20248809B1A3B603048BDE867
:10100000F84002F0F9BF2F4890F80031032B04D1CB
:1010100022462946383006F0D1F822462946224891
:1010200001F03CF9C1E7224629461F4801F068F962
:10103000BBE721462846FFF72BFE224629461A48E1
:1010400001F0EEF9224629461F4800F0A3FD214693
:101050002846FFF701FEA8E721462846FFF718FEBD
:1010600022462946104801F0B3F92246294617487E
:1010700008F0F6FDEBE721462846FFF709FE224679
:101080002946094801F0C0F9EFE721462846FFF755
:10109000FFFD224629460E4800F01EFB85E7F8BDFD
:1010A00014140020181400206004002055100020A3
:1010B000FE010020900300200A020020FC01002015
:1010C000200500207813002050040020AC140020DC
:1010D0009803002010B50446052C084805D1FFF7F9
:1010E000DEFD0748FFF7ECFD06E0FFF7E9FD062C03
:1010F000F7D10348FFF7D3FD10BD00BFA0020020C9
:101100007802002030B5124A1388518899421CD0C9
:10111000D118013303F007031380C0220D25D0F846
:1011200008310C79C254991C0344C0F808115D7051
:10113000084B53F824304350D0F80831591DC0F8FB
:10114000081118440271012030BD0020FCE700BFE7
:10115000FE0100200A0200200020012230B42A49AA
:101160000B185B68283023F0FF0403F00F0302FA2A
:1011700003F3B0F5B47F2361F2D1244BD1F8A00082
:101180001C6800F00F0002FA00F020431860D1F84C
:10119000C8001C6800F00F0002FA00F0204318603D
:1011A000886F1C6800F00F0002FA00F020438C6A80
:1011B0001860186804F00F0402FA04F42043186061
:1011C000086D1D6800F00F0002FA00F02843186057
:1011D000D1F8F0001D6800F00F0002FA00F005439E
:1011E0001D601D68D1F8401128431860186801F08F
:1011F0000F0104431C6018688A40024330BC002081
:101200001A60FFF797BD00BF2802002000040140CC
:10121000F7B5002501273B4C3B4ECDE9005744F084
:10122000090344F00B0239493046FFF79DFB38496A
:10123000CDE9007544F0080344F00A0241F00701CB
:1012400006F12800FFF790FB0223324F009344F091
:10125000020244F0070347F00101019506F1500036
:10126000FFF782FB032344F00302009347F00201DF
:1012700044F00603019506F17800FFF775FB04239F
:1012800044F00402009347F0030144F00D0301957C
:1012900006F1A000FFF768FB052344F00502009368
:1012A00047F0040144F00C03019506F1C800FFF774
:1012B0005BFB062344F00F0400932246234647F0CD
:1012C0000501019506F1F000FFF74EFB07232246CA
:1012D000009347F006012346019506F58C70FFF751
:1012E00043FB08230C49009301952346224641F015
:1012F0000D0106F5A070FFF737FB084B1D805D80E0
:1013000003B0F0BD00200140280200200008014089
:10131000001C01400018014000100140FE010020A7
:101320001FB51349134BB1FBF0F10293124B02A806
:1013300043F00A034FF47A7289B2039303F076F80C
:10134000002202A8CDE900220623032103F0AEF813
:101350005022029B0A219A8703A802F053FB074AF6
:10136000536843F40073536005B05DF804FB00BF9D
:101370004019010000000040000C01400000014045
:10138000044B4FF47A72B3FBF0F0034B80B29885B4
:101390001A8570474019010000000040054A138A71
:1013A00023F008031B041B0C1382138C43F480737B
:1013B0001384704700000040034A138C23F48073A9
:1013C0001B041B0C1384704700000040426A01207C
:1013D00010B5124B124C03EB810183F8AC00B4F84A
:1013E000DE304A620344B4F8DC2003F01F0393426A
:1013F0000DD006F085FB58B90121B4F8DE30E218B3
:101400000B4403F01F0382F8E010A4F8DE3010BD97
:10141000204605F02EF90028EED1F8E790120020C2
:10142000781300202DE9F0410546144817460E4672
:1014300004F0ECFE8046D5E90B40001B0FF0E2F90A
:1014400041460FF037FA054620460FF0DBF901461A
:1014500028460FF027F93946044630460FF020F9A8
:10146000074920F000400FF025FA014620460FF012
:1014700021FA0FF021FCBDE8F08100BF3C100020F4
:10148000610B363C084B10B59A6A596A0446FFF75F
:10149000C9FFD4E90B32984203D39042034628BFD8
:1014A0001346184610BD00BF9012002010B5044628
:1014B000FFF7E8FF4FF47A7300F5FA714BF232321E
:1014C000B1FBF3F104F1200003F0D9FF236AA26B12
:1014D0009A4201D1002306E0E26B9A420CD1236CC0
:1014E00001330E2B01D8236405E00023236401237C
:1014F000A26384F8443010BDE363EBE74FF47A73E2
:101500000A685A43C2624A68534303637047000043
:1015100038B5184B002543620023C3600374164B93
:10152000056045608560294604461A46143004F07B
:10153000CBFF0421114804F039F898B9104B114A37
:101540009D625A620821104804F030F820B9032146
:101550005A220B4BC3E929122046BDE838400A49FC
:10156000FFF7CCBF0421094804F020F80028E5D09B
:10157000E8E700BF0000A04200003442B41200209F
:10158000901200200000B44234130020B812002052
:101590002DE9F843466A04463046884691461F4680
:1015A0000FF07EF84FF07E5120F000400FF020FB4E
:1015B000054668B948460FF025F906490FF07AF953
:1015C000424603463146204604F07EFFE56027741C
:1015D000BDE8F883CDCC4C3D2DE9F0481C4E0446C7
:1015E00075681C4928460FF017FB50B300212846A8
:1015F0000FF008FB28B304F07FFED4E91223821A0F
:1016000061EB030393469C460FA3D3E900235A459D
:1016100073EB0C0315DAE0680FF0F4F8A1680FF033
:10162000E7FA10B1237C022B0BD10B4970680FF045
:1016300039F802230146FA222046BDE8F048FFF7B8
:10164000A7BFBDE8F08800BFFF5DD0B2000000007A
:10165000541300200000B4C20000B44270B51C4C0A
:10166000064601F109000D4604EB8000042103F059
:101670009DFF30B3083504EB85046168726A30461B
:10168000FFF7D0FE6168134C024601233046FFF796
:101690007FFFB4F8DE30B4F8DC20013303F01F0321
:1016A00093420ED0012006F02BFA58B90121B4F86C
:1016B000DE30E2180B4403F01F0382F8E010A4F8B8
:1016C000DE3070BD204604F0D4FF0028EED1F8E7EC
:1016D0009012002078130020497B063901290AD88E
:1016E000022A02D0072A03D07047C9B2FFF7B6BF5B
:1016F000C9B2FFF76BBE704770B5446A05460E4627
:10170000204613490FF074FA78B1002130460FF0EB
:101710006FFA50B120460F490FF0CCF8014605F1A1
:101720001400BDE8704004F019BF0B4920460FF0CB
:101730007DFA50B1002130460FF078FA28B12146E9
:1017400006480EF0ADFF0349E6E74FF07E5070BD4E
:101750000000F0418988083D000070420000B4425A
:1017600070B50E460546FFF7C7FF044615493046DB
:101770000FF0A0F821460FF09DF8AD6A044601462F
:1017800028460FF035FA60B10F4928460EF08AFF5F
:101790000546014620460FF035FA00B92C46204692
:1017A00070BD214628460FF041FA0028F7D00649BF
:1017B00028460EF075FF0546014620460FF02CFA2C
:1017C000EBE700BF000034420000C0400000000012
:1017D000F8B504466A4804F0C5FC94F8443006465F
:1017E000EBB10023674D84F84430B5F8DE30B5F82E
:1017F000DC20013303F01F03934210D0012006F0D8
:101800007FF9002840F08D800121B5F8DE30EA181C
:101810000B4403F01F0382F8E010A5F8DE3000212E
:1018200030464FF001050FF0D9F908B14FF000052F
:1018300094F83420EBB29A424FF0000724D084F899
:101840003450394630460FF0C9F940BB04F054FD1E
:10185000C4E912014B4DB5F8DE30B5F8DC20013398
:1018600003F01F0393420FD0012006F049F900282E
:101870005ED10121B5F8DE30EA180B4403F01F03F6
:1018800082F8E010A5F8DE3094F834303BB1002344
:1018900027606760A760E360237402F0BBFEE56821
:1018A00028460EF0AFFFA16807460FF0A1F9002807
:1018B00044D00135E5603946204604F00FFE054668
:1018C00004F01AFDC4E912012F4928460FF09AF9D5
:1018D00000B92D4D002128460FF09EF900B90025D2
:1018E00094F83430DBB1274B93F86830BBB9294604
:1018F000606A0EF0D5FE4FF0505120F000400FF01E
:101900008BF960B1002128460FF068F920B91E4913
:1019100028460FF063F910B1002002F035F9656236
:10192000F8BD284604F0A5FE00287FF46DAF76E7E9
:10193000284604F09EFE00289BD1A5E731462046AC
:10194000FFF70EFF0546A062606A0EF005FB064633
:1019500028460F460EF000FB07A3D3E900230EF044
:1019600053FB02460B46304639460EF097F90EF00F
:1019700043FE0546A8E700BF7B14AE47E17A943FDB
:1019800024100020781300200000B44238B5002550
:101990000E4C14220021204608F0D8F904F1200052
:1019A0006561A561E56103F067FD00230022C4E9DC
:1019B0000B3384F83430C4E90E33236484F84430A4
:1019C00000236562A562C4E9122338BD9803002094
:1019D000F0B504462348844229D10126224D8E4089
:1019E000286800BBDFF894C0DCF8147047F00107EA
:1019F000CCF814706FF070476760304328601B4864
:101A000040F8312000EBC1004360012314208A001C
:101A1000934063600023414301F1080020440C44DB
:101A2000E360A360F0BD3042E7D00020FAE7104841
:101A30008442EAD101260F4D8E40286870B9DFF844
:101A40003CC0DCF8147047F00207CCF814706FF05B
:101A500070476760304328600748D1E73042F9D0CB
:101A6000E3E700BF0000024048040020E803002034
:101A7000000402404C04002020040020001002401A
:101A8000036810B48C00E34003F00F010123A3406E
:101A90004360136813B1506810BC184710BC7047FE
:101AA000024A00210248FFF7EBBF00BFE803002015
:101AB00000000240024A01210248FFF7E1BF00BFD7
:101AC000F003002000000240024A02210248FFF712
:101AD000D7BF00BFF803002000000240024A0321E4
:101AE0000248FFF7CDBF00BF000400200000024005
:101AF000024A04210248FFF7C3BF00BF08040020C8
:101B000000000240024A05210248FFF7B9BF00BFAA
:101B10001004002000000240024A06210248FFF79C
:101B2000AFBF00BF1804002000000240024A00219D
:101B30000248FFF7A5BF00BF2004002000040240B8
:101B4000024A01210248FFF79BBF00BF2804002082
:101B500000040240024A02210248FFF791BF00BF81
:101B60003004002000040240024A03210248FFF72B
:101B700087BF00BF38040020000402404FF47A738E
:101B8000038043808380C380038143818381C38139
:101B900070470000052A10B522D14FF4FA631F4C9C
:101BA0008381B4F8DE30B4F8DC20013303F01F0386
:101BB000934214D0912005F0A3FF58B99121B4F8B5
:101BC000DE30E218013303F01F0382F8E010A4F8BE
:101BD000DE3004E0204604F04CFD0028EED110BDBC
:101BE000072AFCD14FF47A730C4C8381B4F8DE30B1
:101BF000B4F8DC20013303F01F039342EFD09020B0
:101C000005F07EFF20B9B4F8DE309021E218D9E764
:101C1000204604F02EFD0028F5D1E0E778130020DF
:101C2000C0222DE9F843D1F808310546CA549A1C60
:101C3000C1F8082101220C4600260B44DFF8E89089
:101C4000DFF8E880314F5A70182000FB069004F04E
:101C500089FA41460EF02EFE39460EF023FD0FF0B4
:101C60002BF825F816000136042EEDD1284804F093
:101C7000F7FAD8B140F2EC436B814FF4FA73EB8181
:101C8000DB26DC274FF0DD0C681E0F35D4F8083159
:101C9000A84203F1010232D010F8011FC02921D05F
:101CA000DB2925D0C4F80821E154EFE7194B1A4984
:101CB000586A0EF0FFFD19490EF0F4FC0EF0FCFF1F
:101CC0006881134804F04EFA0EF046F90022144BD6
:101CD0000DF0E4FF0022134B0EF096F90EF06CFCB1
:101CE000E881CDE7E6540233C4F80831A754CDE7C4
:101CF000E1540233C4F8083104F802C0C6E7C4F85E
:101D00000821C022E254BDE8F88300BF0080BB4434
:101D100024100020980300208FE3B84000007A448C
:101D20000000F03F00407F40C40F00200000FA4355
:101D30000020FFF79FB80220FFF79CB80320FFF7B1
:101D400099B80420FFF796B80520FFF793B808B5B7
:101D50000620FFF78FF80720FFF78CF80120FFF728
:101D600089F8BDE8084002F025BD0820FFF782B8D9
:101D700004292DE9F04143D9C3788578067847785E
:101D800004794FF4DC7045EA0325FFF7C9FA002215
:101D90004FF0010C1B498B6846FA02F823F0FF0E46
:101DA00003F00F030CFA03F318F0010F14BFCEF881
:101DB0001430CEF810304B6847FA02F023F0FF0ED3
:101DC00000F0010003F00F030CFA03F390B1CEF81A
:101DD00014300132062A01F12801DCD16DB1284608
:101DE000FFF7CEFAFFF7DAFA54B1BDE8F04101206F
:101DF00001F0CABECEF81030EBE7FFF7DDFAF3E7EB
:101E0000BDE8F08128020020012919D9037813B117
:101E1000012B08D0704743780A48002B14BF642177
:101E2000002102F075BC084A22F0FF0102F00F0207
:101E300042F00B02934042780AB10B6170474B614C
:101E4000704700BF7C0F0020000801400A88504006
:101E500080EA0010C0B2C30083EA002383EA1223A1
:101E600083EA101008807047FE232DE9F743837042
:101E70000446FF23E1704371062391461B4A837198
:101E800093790E460371013393714FF6FF730DF191
:101E90000808C71C28F8023D00F10805BD4205D01E
:101EA000414617F8010BFFF7D1FFF7E72F46BDF8C2
:101EB000063094F803802380A844B845214604D016
:101EC00017F8010BFFF7C2FFF7E74846FFF7BEFF21
:101ED000E378228806F10800EA54E3781D44238859
:101EE0001B126B7003B0BDE8F08300BF000500203B
:101EF00070B48BB001930E9B0546029300230393AD
:101F00000493059306930F9BADF8202007930123BC
:101F10008DF8223000238DF823108DF8243001AC89
:101F200000F1080309AE224603CAB24218605960A4
:101F3000144603F10803F6D1127821211A702846BD
:101F40004C239822EB710BB070BCFFF78DBF036A76
:101F500013F0020314D00123026822F0FF0102F003
:101F60000F029340027B2AB98A681A4214BF0120EB
:101F7000002070478A681A420CBF01200020704779
:101F8000184670470338C3B2122B97BF044801208C
:101F9000D840C04398BF00F0010080F001007047B6
:101FA0001FE1070082784378012A05D1181F012814
:101FB0008CBF0020012070470020704738B50025F5
:101FC00004460570457085704560057229464022BB
:101FD000103007F0BBFE96232946C4E914351422BD
:101FE00004F1580007F0B2FE0022002304F1800043
:101FF000C4E91C23C4E91E2301F02AFE012384F84E
:1020000098304FF6FF7384F89950A4F89A3084F80A
:102010009C50204638BD002380F85530FF2380F8BF
:10202000583080F85B304FF6FF737F22A0F868309D
:10203000002380F85A20C36503664366704700009A
:10204000002310B5104C80F85530B4F8DE30B4F8E9
:10205000DC20013303F01F0393420ED0182005F05B
:102060004FFD58B91821B4F8DE30E218013303F0FF
:102070001F0382F8E010A4F8DE3010BD204604F003
:10208000F8FA0028EED1F8E77813002038B53F4C75
:1020900005463F4804F006FFB4F8DE30B4F8DC2013
:1020A000013303F01F0393420ED0182005F028FDE2
:1020B00080BB1821B4F8DE30E218013303F01F03AF
:1020C00082F8E010A4F8DE302846FFF76BFF60B31B
:1020D0000123B5F8680085F8993004F0DDF9B4F80B
:1020E000DE30B4F8DC20013303F01F0300283BD0BE
:1020F00093421AD07C2005F003FD88B97C21B4F806
:10210000DE30E218013303F01F0382F8E010A4F878
:10211000DE300AE0204604F0ACFA0028C9D1D3E74B
:102120001A4804F0A6FA0028E8D100237F222B7277
:102130006B704FF6FF7385F85A20A5F89A30FF228E
:1021400085F85830A5F86830002385F85B20EB65EA
:102150002B666B660F48FEF7B3FD0F48FEF7B0FD28
:102160000E48FEF7ADFD38BD9342DED07D2005F070
:10217000C7FC20B9B4F8DE307D21E218C2E703487D
:1021800004F077FA0028F5D1CFE700BF78130020DC
:1021900018140020A0020020500200207802002025
:1021A000036D952B05D80133962B036501D1FFF7FD
:1021B0006DBF704738B5036D0446952B02D80023D8
:1021C000036538BDCD79002DFBD1FFF739FF2565BB
:1021D000F7E7000010B590F8993033B3002380F88A
:1021E00099308378012B20D1043901291DD8037837
:1021F000062B01D0092B18D10F4CB4F8DE30B4F8FF
:10220000DC20013303F01F0393420ED07E2005F043
:1022100077FC58B97E21B4F8DE30E218013303F0C0
:102220001F0382F8E010A4F8DE3010BD204604F051
:1022300020FA0028EED1F8E77813002003788B42CB
:1022400009D0012380F8561080F8543080F85530BA
:10225000014801F0D1BE70472005002083788B42F1
:102260000AD0022380F85430012380F8561080F8F9
:102270005530024801F0C0BE704700BF2005002065
:102280000023A0F85630032380F85430012380F84F
:102290005530014801F0B0BE2005002038B5164B7E
:1022A00004461B78154633BB036D952B23D8FFF7E7
:1022B00079FE18B994F958300E2B1CDD022D0FD081
:1022C000042D18D1062384F8543001230B4884F8D8
:1022D000553001F091FE0020BDE8384001F054BCBB
:1022E00005230125054884F8543084F8555001F041
:1022F00083FE2846F0E738BD54100020200500205A
:102300001D4B10B51B780446A3BB036D952B31D82C
:10231000022A2FD1FFF746FE60B320460621FFF7C1
:102320008DFFB4F8680004F0B7F8C0B9134CB4F8E6
:10233000DE30B4F8DC20013303F01F0393420ED0EB
:102340008A2005F0DDFB78B98A21B4F8DE30E21886
:10235000013303F01F0382F8E010A4F8DE300120FF
:10236000BDE8104001F010BC204604F082F90028BE
:10237000EAD1F4E710BD00BF54100020781300200C
:102380007047000008B58378012B01D0002008BDFC
:10239000042AFBD10648FFF7DAFD0028F6D00548ED
:1023A000FFF7D5FD0028F1D00348FFF7D0FDEEE799
:1023B000C8020020F0020020A002002008B502217F
:1023C000FFF74CFFBDE80840022001F0DDBB000034
:1023D00038B5036D0446952B154612D8FFF7D2FF8A
:1023E00020B12046BDE83840FFF7E8BF022D08D1F4
:1023F000044B1B782BB129462046BDE83840FFF737
:102400001DBF38BD5510002010B50446FFF7BAFFB8
:1024100020B12046BDE81040FFF7D0BF10BD00003E
:1024200038B504461546FFF7ADFF20B12046BDE89C
:102430003840FFF7C3BF022D11D12046FFF7B2FD90
:1024400068B10723012584F8543084F855500448B6
:1024500001F0D2FD2846BDE8384001F095BB38BDFB
:1024600020050020012910B504461BD1FFF708FF05
:10247000164CB4F8DE30B4F8DC20013303F01F034F
:1024800093420ED00B2005F03BFBC0B90B21B4F8F2
:10249000DE30E218013303F01F0382F8E010A4F8E5
:1024A000DE3010BD0029E3D101720078FFF76AFD2C
:1024B0000028DDD005212046FFF7C0FED8E72046E2
:1024C00004F0D7F80028E1D1EBE700BF7813002033
:1024D000042938B505460C4616D101220C49CB6AB1
:1024E00023F0FF0003F00F0302FA03F343610B6BC9
:1024F00023F0FF0103F00F039A400A6121462846AA
:10250000BDE83840FFF766BE0248FEF7D9FBF5E7A5
:10251000280200205002002010B5114C0846FEF79A
:10252000D9FDB4F8DE30B4F8DC20013303F01F032A
:1025300093420ED0192005F0E3FA58B91921B4F8E6
:10254000DE30E218013303F01F0382F8E010A4F834
:10255000DE3010BD204604F08CF80028EED1F8E7FC
:102560007813002010B5104CB4F8DE30B4F8DC203D
:10257000013303F01F0393420ED0102005F0C0FA80
:1025800058B91021B4F8DE30E218013303F01F030C
:1025900082F8E010A4F8DE3010BD204604F069F89F
:1025A0000028EED1F8E700BF7813002010B5104CDA
:1025B000B4F8DE30B4F8DC20013303F01F0393429B
:1025C0000ED0092005F09CFA58B90921B4F8DE3084
:1025D000E218013303F01F0382F8E010A4F8DE30A4
:1025E00010BD204604F045F80028EED1F8E700BF02
:1025F000781300204B1C17D0642990F89C20A8BFAA
:1026000064216FF063008142B8BF0146084B03EBC1
:10261000820393F902208A4208DA93F90300884280
:10262000ACBF002001207047002070470120704798
:10263000E011010870B51A4C064694F8A0300D461A
:10264000713BDBB2102B0AD8012202FA03F302F528
:10265000E0321A401AB104F1A00004F023FC96F80D
:102660009C30B3B1B4F8DE30B4F8DC20013303F0B1
:102670001F0393420DD0284605F042FA50B9B4F832
:10268000DE30E218013303F01F0382F8E050A4F8B3
:10269000DE3070BD024803F0ECFF0028EFD1F8E710
:1026A0007813002064296FF06303A8BF6421994266
:1026B000B8BF1946002370B40B4A02EB830494F9A7
:1026C00002508D420BDA12F8235090F89C60AE4213
:1026D00005D080F89C50617870BCFFF7ABBF013328
:1026E000042BEAD170BC7047E011010838B50446EC
:1026F0000D46FFF77FFF18B129462046FFF7D2FFAE
:102700000F4CB4F8DE30B4F8DC20013303F01F03C3
:1027100093420ED0132005F0F3F958B91321B4F801
:10272000DE30E218013303F01F0382F8E010A4F852
:10273000DE3038BD204603F09CFF0028EED1F8E7DC
:102740007813002038B590F95A000D4606F09AFD2E
:102750000446284606F096FD844218D00F4CB4F883
:10276000DE30B4F8DC20013303F01F0393420ED0B7
:102770000A2005F0C5F958B90A21B4F8DE30E2188C
:10278000013303F01F0382F8E010A4F8DE3038BDF7
:10279000204603F06EFF0028EED1F8E77813002002
:1027A00010B5104CB4F8DE30B4F8DC20013303F07F
:1027B0001F0393420ED0112005F0A2F958B9112140
:1027C000B4F8DE30E218013303F01F0382F8E010A2
:1027D000A4F8DE3010BD204603F04BFF0028EED1F8
:1027E000F8E700BF7813002008B508461522034912
:1027F00007F034FFB0FA80F0400908BDA5120108C7
:102800002DE9F0436B4CBBB010AD0F460FCC0FC59C
:1028100094E80300684B85E803000093674B0DAD17
:102820000793674B08340893664B94E807000993B5
:10283000654B85E807000A93644B88220B93644B31
:1028400000210C93634B18A80193634B17AC0293C0
:10285000624B0393624B0493624B0593624B069366
:1028600007F074FA64228DF8782002220623209261
:10287000239226926622179370238DF89C206C2257
:102880008DF8603003238DF8A8206D221A936723FA
:102890008DF8B4206B228DF86C30012369218DF8FE
:1028A000C02068221D9329932C932F933293359344
:1028B00038936A238DF884108DF8CC2065216F221F
:1028C000199500258DF8E43010AB169307AB1F93D4
:1028D00009AB22930BAB259302AB289301AB2B934F
:1028E00003AB8DF890108DF8D820CDF870D02E93D2
:1028F00004AB319305AB349306AB37930026D4F881
:102900000090B14535D054F8043C53F82680404639
:1029100007F09CFE41460246384607F09FFE30BB5A
:10292000324CB4F8DE30B4F8DC20013303F01F037E
:10293000934213D00C233AAA03FB052515F8885CB3
:10294000284605F0DDF860B9B4F8DE30E21801334E
:1029500003F01F0382F8E050A4F8DE303BB0BDE87E
:10296000F083204603F085FE0028EDD1F6E701361E
:10297000C7E701350C2D04F10C04BFD105221C4919
:10298000384607F06BFE90B108221A49384607F026
:1029900065FEB0FA80F46409174804F061FB002872
:1029A000DCD0002CDAD0144804F07CFAD6E70124FD
:1029B000F2E700BFBC110108F8110108BB120108C1
:1029C000BE120108DA120108F91201081A130108EF
:1029D00032130108131201083A120108FB11010811
:1029E0005B120108781201088F1201087813002089
:1029F0009F1201089C1201081814002038B500F13C
:102A0000110529460446FFF7EFFE28B12046BDE830
:102A100038400521FFF712BC29462046BDE8384062
:102A2000FFF7EEBE08B54B07416008D5044804F037
:102A300017FB20B1BDE80840014804F033BA08BDD7
:102A400018140020F8B5414C0546B4F8DE30B4F84F
:102A5000DC20013303F01F0393420E460ED00F20FB
:102A600005F04EF8D0BB0F21B4F8DE30E218013388
:102A700003F01F0382F8E010A4F8DE302846FFF7C9
:102A800091FAB0B34FF6FF73B5F86800984230D0B2
:102A900003F002FD0746304603F0FEFC002F3AD05B
:102AA00038BB2878FFF76EFAB4F8DE30B4F8DC20D3
:102AB000013303F01F03E8B993421AD0862005F0D2
:102AC0001FF888B98621B4F8DE30E218013303F02C
:102AD0001F0382F8E010A4F8DE300AE0204603F07D
:102AE000C8FD0028BFD1C9E7184803F0C2FD00287F
:102AF000E8D1F8BD9342FCD0852005F001F820B95B
:102B0000B4F8DE308521E218E0E7104803F0B1FDAB
:102B10000028F5D1EDE70028EBD0B4F8DE30B4F8AA
:102B2000DC20013303F01F039342E2D0872004F03E
:102B3000E7FF20B9B4F8DE308721E218C6E7034882
:102B400003F097FD0028F5D1D3E700BF78130020EC
:102B50001FB5034693F854200846013A062A21D8A7
:102B6000DFE802F023044A18373D440093F856305A
:102B70000022012B09D0022B134609D011460192E5
:102B80004FF4C8720091FA210AE04FF07E53F5E746
:102B90002149F4E7214A00230192012116220093E2
:102BA000FFF7A6F905B05DF804FB40F2011293F8B7
:102BB0005630ADF80C2002938360BDF80C305922DA
:102BC00083810B230621C37105B05DF804EBFFF789
:102BD0004BB900234AF2114201930093D3E700233B
:102BE0004AF21242019300930C4BCCE700234AF2C5
:102BF000134201930093C6E7B3F85630E622ADF8CE
:102C0000083040F20113ADF80A30029B04218360C2
:102C10002823C371D8E700BF0098A54600004040B4
:102C200070B590F85540C4B0012C05460E460CD145
:102C30006946FFF78DFF3046694602F09BFB022391
:102C4000204685F8553044B070BD0020FBE70000F9
:102C50008B787BB9037A012B0CD14278032A09D1F6
:102C600002220272042280F8553080F85420034872
:102C700001F0C2B900230372704700BF2005002095
:102C80000A8810B4162A0DD0B2F5C87F04D00B2ADA
:102C90000CD110BCFFF7DCBF8B783BB1064810BCF1
:102CA00004F097BA8B781BB90323037210BC7047EA
:102CB000014810BC04F090BAB013002000000000DE
:102CC000F0B5CB798FB04A2B044600F0FE8043D894
:102CD000182B00F0D38006D8002B67D0012B00F012
:102CE00026810FB0F0BD212B00F09680272BF8D164
:102CF00001F1080204AD01F128032E461068516865
:102D0000083203C69A423546F7D1106804A93060EC
:102D1000137904F18000337100F0A4FF0028E0D0A3
:102D2000C14CB4F8DE30B4F8DC20013303F01F03EB
:102D30009342D6D0122004F0E3FE002840F06581D3
:102D40001221B4F8DE30E218013303F01F0382F8D9
:102D5000E010A4F8DE30C4E79E2B00F0408119D8C3
:102D60004D2B00F0F1806D2BBBD10A4652F8080FB5
:102D700004AB5168127A03C31A709DF9155094F987
:102D80005A30AB42ADD029462046FFF7DBFC84F831
:102D90005A50A6E7FC2B00F00281FD2B00F0E880E2
:102DA000C12B9ED18B8BA0F89A309AE70A4652F835
:102DB000080F04AB5168127A03C31A709DF81650BD
:102DC000A378ED09AB4204D029462046FFF74AFB21
:102DD000A5709DF810502378AB4204D029462046B8
:102DE000FFF79AFB25709DF817506378AB4204D02B
:102DF00029462046FFF76CFB6570B4F89A10B4F8CA
:102E000068308B423FF46DAF2046FFF71BFEB4F8ED
:102E10009A30A4F8683064E701F1080304AA01F1CC
:102E20002006154618685968083303C5B3422A4678
:102E3000F7D11868286006980DF07CF876A3D3E9DE
:102E400000230DF0E1F8064605980F460DF072F8E4
:102E500071A3D3E900230DF0D7F8CDE9000169464D
:102E60002046CDE90267FFF79BFCDDE90023C4E9BA
:102E70001C23DDE90223C4E91E2332E701F1080324
:102E800004AA01F12006154618685968083303C5DD
:102E9000B3422A46F7D1186828609B88AB809DF81A
:102EA0002C3094F859209DF82D509A4218BF84F880
:102EB000593094F85B30AB423FF413AF29462046BB
:102EC000FFF750FB84F85B500BE701F1080304AAFD
:102ED00001F11806154618685968083303C5B3424E
:102EE0002A46F7D118682860237A032B0AD106985E
:102EF0000DF032F84AA3D3E900230DF00BFB08B123
:102F000004232372069DE06D29460DF0C9FB474955
:102F100020F000400DF080FE20B129462046FFF74A
:102F200045FBE565049B2366059B6366D9E691F93D
:102F3000265090F95830AB423FF4D3AE2946FFF704
:102F4000D5FB84F85850CCE631F8082F8B78ADF8D3
:102F500010208DF81230BDF8102090F8543004A9DC
:102F60009A4204BF002380F85530FFF789FEB8E687
:102F700001F1080300F11002383153F8040B8B42C1
:102F800042F8040BF9D1198811809B78937003F0F3
:102F9000B3F9C4E912012046FFF730FDA1E601F1C3
:102FA000080304AA01F11806154618685968083381
:102FB00003C5B3422A46F7D11B8807222B801C4940
:102FC00006A807F04BFB00287FF48BAE05996368D9
:102FD0008B423FF486AE2046FFF724FD81E601F1E7
:102FE000080304AA01F1100514461868596808334B
:102FF00003C4AB422246F7D1186804A920609B881D
:103000000C48A38002F0ACFF6BE6204603F031FBD6
:1030100000287FF495AE64E648AFBC9AF2D77A3EBA
:10302000666666666666064078130020CDCCCC3DA9
:10303000F01101085413002038B504460D46FFF77F
:10304000B9F829462046BDE83840FFF739BE0000F0
:103050000148FEF7B3BF00BF600400202DE9F04136
:10306000054614461A4A1F465369069E43F4807368
:10307000536100EB8108454509D104EB8707A7425E
:103080000BD020460B2100F0BDFC0434F7E72846A6
:103090000B2100F0B7FC0435EDE73168327A0D4BB7
:1030A000746843F8321003EBC200490444605FBF08
:1030B0006FF0704002F1200103EBC101486053F84A
:1030C000321041F0010143F83210BDE8F08100BF39
:1030D00000100240000000A02DE9F84FD1E90045A2
:1030E000D0E900678046894622462B46304639465D
:1030F0000CF0D2FD2AA3D3E900230CF085FF08F0E1
:10310000DBFED9E9022382468B46D8E902010CF0A6
:10311000C3FD23A3D3E900230CF076FF08F0CCFE17
:1031200021A3D3E9002380468946304639460CF076
:103130006BFF08F079FE1CA3D3E9002306460F4677
:10314000204629460CF060FF08F06EFE04460D464E
:1031500042464B46404649460CF056FF32463B46F7
:103160000CF052FF22462B460CF04EFF524604460E
:103170000D465B46504659460CF046FF02460B464C
:10318000204629460CF08AFD09F04AFB09F05CF95B
:1031900002460B460CF082FDBDE8F88FAFF30080CD
:1031A000399D52A246DF813F399D52A246DF913FB1
:1031B00008B5FFF791FF04A3D3E900230CF024FF27
:1031C00008BD00BFAFF300809010E5636F4F58411A
:1031D000C90001F4FC6141EAD001024800EA022082
:1031E0000843704700F8FFFF43F63D52044B9042FE
:1031F0001B6809BF5A88588092B25A80704700BF36
:103200007C0F002010B5044C0146204601F0AEFBB7
:103210002C2223681A8010BD7C0F002070B5044654
:103220000E46074D0146284601F0A0FBA388E28820
:1032300031462846BDE870405A4301F0B8BB00BF94
:103240007C0F002007B5064801F0F2FA0021054B7B
:103250006846CDE90013FFF7E1FF03B05DF804FB1A
:103260007C0F00204001F00007B50022044B01460E
:103270006846CDE90023FFF7D1FF03B05DF804FBFA
:103280004001F00030B5451E002015F8013F73B134
:103290000A799342F9D30C781444A342F5DA9B1AC5
:1032A0008A6802EBC3031B79184480B2EDE730BD96
:1032B00070B5451E002015F8013F83B1A9420ED01C
:1032C0001479A342F7D316782644B342F3DA1B1BD2
:1032D000946804EBC3031B79184480B2EBE770BD1C
:1032E000CB000370D3004370CB108370090AD31056
:1032F000120AC3700171427170472DE9F74F0C9C9F
:103300001F46DDE90F659046002A00F04182012A40
:1033100040F03E820D9BADF80000ADF804300E9BEE
:103320006846ADF80210ADF80630FFF76BFF002ECF
:103330004FD0002D4FD0328829886846FFF7D0FF44
:10334000FF25267873B213F1800F00F02182002B45
:1033500061DA62783B68C6F10106F6B2023433F8EE
:103360001210B8F1000F25D0C900CBB29DF805208E
:103370009DF804109DF802C0521A5A4392FBF5F2D0
:103380000A449DF803109DF80000A1EB0C0159437D
:1033900091FBF5F161449DF801C0C9B2ACEB000CA2
:1033A00003FB0CF393FBF5F31844D2B2C0B2FFF762
:1033B0000FFF0146082EB14628BF4FF00809A9F1BA
:1033C0000203062B1ED8DFE803F01A1714110E0BA8
:1033D0000800B046B4E7A846B2E70846FFF704FF86
:1033E0000846FFF701FF0846FFF7FEFE0846FFF715
:1033F000FBFE0846FFF7F8FE0846FFF7F5FE084615
:10340000FFF7F2FE0846A6EB0906FFF7EDFE16F001
:10341000FF06CFD195E701360134F6B2082EB1464A
:1034200028BF4FF0080922783B6804F1010A33F8FD
:103430001200A9F1020BB8F1000F00F064819DF8B1
:1034400004109DF80520C000C3B2521A5A4392FBE3
:10345000F5F29DF802000A449DF803109DF800C0A3
:10346000091A594391FBF5F101449DF80100D2B2CC
:10347000A0EB0C00434393FBF5F36344D8B2C9B20D
:10348000FFF7A6FEBBF1060F00F20B81DFE80BF0A1
:10349000DEB3885D32070400FFF7A6FE54462278AB
:1034A0003B689DF8041033F812309DF80520DB00CE
:1034B000DBB2521A5A4392FBF5F204F1010A0A44B4
:1034C0009DF802409DF803109DF80000091B594328
:1034D00091FBF5F121449DF80140D2B2241A6343D7
:1034E00093FBF5F31844C9B2C0B2FFF771FEFFF7C2
:1034F0007BFE544622783B689DF8041033F8123066
:103500009DF80520DB00DBB2521A5A4392FBF5F21C
:1035100004F1010A0A449DF802409DF803109DF849
:103520000000091B594391FBF5F121449DF801402E
:10353000D2B2241A634393FBF5F31844C9B2C0B264
:10354000FFF746FEFFF750FE544622783B689DF891
:10355000041033F812309DF80520DB00DBB2521A5C
:103560005A4392FBF5F204F1010A0A449DF8024025
:103570009DF803109DF80000091B594391FBF5F1DC
:1035800021449DF80140D2B2241A634393FBF5F322
:103590001844C9B2C0B2FFF71BFEFFF725FE544620
:1035A00022783B689DF8041033F812309DF805200E
:1035B000DB00DBB2521A5A4392FBF5F204F1010A26
:1035C0000A449DF802409DF803109DF80000091B75
:1035D000594391FBF5F121449DF80140D2B2241AE0
:1035E000634393FBF5F31844C9B2C0B2FFF7F0FD93
:1035F000FFF7FAFD544622783B689DF8041033F833
:1036000012309DF80520DB00DBB2521A5A4392FBC0
:10361000F5F204F1010A0A449DF802409DF80310F6
:103620009DF80000091B594391FBF5F121449DF8D9
:103630000140D2B2241A634393FBF5F31844C9B294
:10364000C0B2FFF7C5FDFFF7CFFD544622783B68B7
:103650009DF8041033F812309DF80520DB00DBB232
:10366000521A5A4392FBF5F204F1010A0A449DF8FA
:1036700002409DF803109DF80000091B594391FB7F
:10368000F5F121449DF80140D2B2241A634393FB23
:10369000F5F31844C9B2C0B2FFF79AFDFFF7A4FDD5
:1036A000544622783B689DF8041033F812309DF898
:1036B0000520DB00DBB2521A5A4392FBF5F204F10B
:1036C000010A0A449DF802409DF803109DF800008D
:1036D000091B594391FBF5F121449DF80140D2B2F9
:1036E000241A634393FBF5F31844C9B2C0B2FFF741
:1036F0006FFDFFF779FD5446A6EB090616F0FF06AD
:103700007FF48CAE1DE6BBF1060F38D8DFE80BF076
:103710002F271F170F070400FFF766FD5446227876
:103720003B68611C33F81200FFF75EFD0C462278FF
:103730003B68611C33F81200FFF756FD0C462278F7
:103740003B68611C33F81200FFF74EFD0C462278EF
:103750003B68611C33F81200FFF746FD0C462278E7
:103760003B68611C33F81200FFF73EFD0C462278DF
:103770003B68611C33F81200FFF736FD0C462278D7
:103780003B68611C33F81200FFF72EFD0C46B3E7CF
:1037900003B0BDE8F08FF0B50E4687B00D9F11461F
:1037A0001A799C68801ADA7804970C9F04EBC0059C
:1037B00003976F7902972D79019554F830000090A6
:1037C000DB683046FFF799FD07B0F0BD2DE9F34700
:1037D0001F46DDE90A56804602F1FF390FFA81FAE9
:1037E00019F8014FCCB13A799442F9D33B7813449C
:1037F0009C42F5DA3B460FFA88F12046CDE90056A7
:103800005246FFF7C8FF3B79E41ABB6803EBC404D8
:10381000237998441FFA88F8E2E7404602B0BDE8F1
:10382000F08713B50024CDE90044FFF7CFFF02B0C5
:1038300010BD2DE9F74F9A46DDE90C5680460E9FE4
:1038400002F1FF390FFA81FB19F8014FD4B12A793F
:10385000944215D32B7813449C4211DA2B460FFA6D
:1038600088F12046CDE900675A46FFF794FF2B798F
:10387000E41AAB6803EBC404237998441FFA88F870
:10388000CA45E1D1404603B0BDE8F08F2DE9FF47BE
:103890008146DDE90C670C46154698468A46237832
:1038A00003B30A2B1CD1544511D02A462146504659
:1038B000FFF7FEFCC0F34F00C0F1A000CDE90167A7
:1038C0000095631E5246494680B2FFF7B2FF0134AD
:1038D000A2466978AB781944414449441FFA81F9FA
:1038E0000134DCE729465046FFF7CCFC2B46524614
:1038F0004946C0F34F00C0F1A00080B2CDE90C678B
:1039000004B0BDE8F047FFF761BF002307B5CDE97C
:103910000033FFF7BBFF03B05DF804FB13B5049C55
:10392000CDE900340023FFF7B1FF02B010BD13B59D
:103930000024CDE90044FFF7A9FF02B010BD2DE936
:10394000F3471D46DDE90B671C799DF8283002F12D
:10395000FF381C1BAB680FFA81F903EBC403044664
:1039600093F804A018F8010FB0B12B799842F9D35D
:103970002A781A449042F5DAAA68C31A02EBC30304
:1039800019795444A4B2611ACDE900672B464A461E
:1039900009B2FFF700FFE5E7204602B0BDE8F08777
:1039A00010B5002486B0CDE903440A9C0294099C1A
:1039B0000194089C0094FFF7A0FC06B010BD1FB551
:1039C00013465C88127902941C8801949C680094C8
:1039D000DB68FFF7E5FF04B010BD30B50B884D88FC
:1039E00085B00A79CDE901355C088B68C4F1A00483
:1039F000A4B20093CB68014620B2FFF7D1FF204666
:103A000005B030BD036810B523F0FF0203F00F03CB
:103A1000072B98BF10464FF00F0485BF083B101DC1
:103A2000026852689B009C4022EA040201FA03F3F8
:103A30001343036010BD000030B50F2403680A4D26
:103A400003F00F0290080230920002F00C0255F8C9
:103A50002010944021EA0401044C1B1B9B0A934054
:103A60000B4345F8203030BD000001400008014004
:103A7000BFF35B8F0C4B53E8002F22F0006243E84A
:103A800000210029F7D10022084BBFF35B8F5A6059
:103A90000122074B23F0FF0103F00F0343F008035B
:103AA00002FA03F34B6170477013002018050020E1
:103AB0000008014007B5074B02A843F0080340F88F
:103AC000043D0221FFF79EFFFFF7D2FF03B05DF830
:103AD00004FB00BF000801400A4B5B687BB90A4B3E
:103AE00023F0FF02D168012203F00F0343F0080323
:103AF00002FA03F30B4214BF104600207047012066
:103B0000704700BF1805002000080140194B10B590
:103B10005A681AB9BDE81040FFF7AABF1968013A00
:103B20000C885A600122881C1860134B23F0FF0197
:103B300003F00F0343F0080302FA03F322044CBF1F
:103B40004B610B6102F0D8FB0C4B24F40044E3FB07
:103B500004010B4BC3E90001BFF35B8F094B53E832
:103B6000002F42F0006243E800210029F7D1BFF3A3
:103B70005B8F10BD180500200008014040420F0077
:103B80001005002070130020184B10B51B78044658
:103B9000022B29D1FFF7A0FF30BB062C24D8DFE889
:103BA00004F0040D1013181B2000114B114A1A6069
:103BB0000122BDE810405A60FFF7A8BF0C4B0E4A27
:103BC000F5E70B4B0D4AF2E7094B0D4A1A60032249
:103BD000EFE7074B0B4AF9E7054B0B4A1A60052242
:103BE000E7E7034B094AF9E710BD00BF491300207E
:103BF00018050020221501082415010806150108E2
:103C0000001501081215010818150108081501080A
:103C100008B502F071FB0C4BD3E90023904271EB25
:103C200003030DDABFF35B8F084B53E8002F42F01C
:103C3000006243E800210029F7D1BFF35B8F08BD84
:103C4000BDE80840FFF762BF100500207013002098
:103C500030B50022002400250261C0E90045C0E91A
:103C6000024530BDF8B58B8B04460D46002B3AD18A
:103C7000D0E9006700220023304639460CF02CFCC6
:103C800030B1D4E90201002200230CF025FC88B9F0
:103C900028690CF061F932463B460CF01DFC48B136
:103CA00068690CF059F902460B46D4E902010CF0A0
:103CB00013FCB0B968690CF04FF906460F46286945
:103CC0000CF04AF9C4E902670126C4E90001AD69B4
:103CD000206929460CF082FF08B90126256130468B
:103CE000F8BD0026F3E70026F9E7000038B50578AF
:103CF000022D19D8104CB4F8DE30B4F8DC200133B2
:103D000003F01F0393420FD01535EDB2284603F0A0
:103D1000F7FE50B9B4F8DE30E218013303F01F03A8
:103D200082F8E050A4F8DE3038BD204602F0A1FC55
:103D30000028EFD1F8E700BF7813002007B5084B43
:103D400002A843F0090340F8043D0B21FFF75AFE97
:103D50004FF48042034BC3F8002103B05DF804FB2D
:103D60000008014000E000E04FF4804213B5104B22
:103D70000446C3F880210F4B02A843F0090340F822
:103D8000043D0621FFF73EFE0122019B23F0FF01C7
:103D900003F00F0302FA03F30B61002384F84E3A99
:103DA000C4F82C3284F84D3A84F84C3A02B010BD75
:103DB00000E000E000080140002313B5C0F82C32F9
:103DC000C0F830320193012304460849009341F0C2
:103DD00009024FF4E13341F00A0105F07FFD20466E
:103DE00002B0BDE81040FFF7BFBF00BF00080140B0
:103DF00013B50DF10701044605F02AFE10F0080383
:103E000009D0002384F84D3AD4F8403A0133C4F87D
:103E1000403A02B010BD10F0060F07D084F84D3ABA
:103E2000D4F8483A0133C4F8483AF2E78306F0D5AB
:103E3000B4F83222B4F83012531CC3F30A038B4295
:103E400014D09DF80710224482F83412A4F83232BC
:103E5000BFF35B8F084B53E8002F42F0004243E86A
:103E600000210029F7D1BFF35B8FD2E7D4F8443AA1
:103E70000133C4F8443ACCE7701300200148FFF73F
:103E8000B7BF00BF20050020D0F80831C02903F1DA
:103E9000010205D0DB290BD0C0F80821C1547047BE
:103EA000DB21C1540233C0F80831DC23835470474E
:103EB000C1540233C0F80831DD23F7E7F8B590F8B4
:103EC0004F2A0646032A0C461FD00B2A4AD1D1F8A6
:103ED0000831C0210025E154234F991C2344C4F824
:103EE00008115A70795D20460135FFF7CDFFAC2DE2
:103EF000F8D1D4F8083101205A1CC4F80821C02296
:103F0000E254002386F84F3AF8BDD1F80831C021B9
:103F1000E154991C2344C4F808115A70134B1D68CE
:103F200005F10C07BD4217D103212046FFF7ACFF76
:103F300000212046FFF7A8FF0DF0ACF805460DF074
:103F4000A9F806F083FB2F18BD42D2D015F8011B4B
:103F50002046FFF799FFF7E715F8011B2046FFF70A
:103F600093FFDFE70020CFE790120020788E030850
:103F700010B500F118042146FFF7A0FFD0B9204684
:103F8000FDF7C0F8B0B9204600F02CFF90B92146EB
:103F90000948FEF745FE68B92146084805F090FD3E
:103FA00040B9204601F0D0FB20B92046BDE81040C2
:103FB00001F0B4BD012010BD60040020AC1400204D
:103FC000002310B5C0F820310446FFF7D1FF80B1BF
:103FD0000123D4F82021237504F11801204605F0AF
:103FE00040FDD4F8343AD4F820211344C4F8343ACC
:103FF00010BD2075FCE7000038B503689A8942F2CD
:104000000C0393430AD14FF48045054CC4F880510A
:10401000017D09B9FFF7D4FFC4F8005138BD00BFD6
:1040200000E000E070B590F84E3A0C4613B9012359
:1040300080F84E3A23789A1E182A26D8DFE812F024
:10404000260019009C001F002500A5002500AF00D8
:1040500025001900B9002500250053006D00C2009D
:10406000CD00D700E4004200F500FE002A01250043
:104070003F0180F84F3ABDE87040FFF7BDBF63785D
:10408000964A003318BF0123137070BD944B9B7880
:10409000012BFAD0D4F80831242BF6D9914A631CAD
:1040A00016462134154618685968083303C5A342DB
:1040B0002A46F7D11868286000F048FE012386F8E8
:1040C000AC30E2E7D4F80831082BDED954F8010F00
:1040D000854D616803C58548A5F10801FDF70EFA15
:1040E00001232B70D1E77E4B9B78012BCDD0D4F8E8
:1040F0000831302BC9D97E4D631C31342A461868EB
:104100005968083303C2A3421546F7D100F07CFC7E
:104110000122744B83F8AC20B7E7D4F80831063B92
:10412000122BB2D8611C6078FCF7DCFD0028ACD003
:1041300001226C4B6F4C83F8AC20B4F8DE30134492
:10414000B4F8DC2003F01F0393429ED0082003F054
:10415000D7FC58B90821B4F8DE30E218013303F077
:104160001F0382F8E010A4F8DE308EE7204602F04C
:1041700080FA0028EED188E7D4F80811601C01B15C
:104180000139BDE8704001F007B8D4F80821611C7E
:1041900002B1013A5848BDE8704005F0D5BCD4F8EA
:1041A0000821611C02B1013A5348BDE8704005F096
:1041B000FBBCD4F80811601C01B10139BDE87040A6
:1041C000FDF7D6BD013421464C4803F09BFE214645
:1041D000BDE870404A4805F07FB8D4F80831012B9B
:1041E0007FF653AF601CBDE87040FFF77FBDD4F889
:1041F0000831012B7FF649AF6078BDE87040003090
:1042000018BF012000F0CCBED4F80831082B7FF68F
:104210003CAF08223B49601C05F07EFD00287FF47E
:1042200034AFBDE8704001F00FBDD4F80811601C38
:1042300001B10139BDE87040FDF7E6BDD4F80831A1
:10424000012B7FF622AF607803F060FC00283FF47A
:104250001CAF284DB5F8DE30B5F8DC20013303F093
:104260001F0393423FF411AF6478204603F048FCEB
:1042700050B9B5F8DE30EA18013303F01F0382F8B5
:10428000E040A5F8DE3000E7284602F0F2F9002809
:10429000EFD1FAE6D4F80831012B7FF6F6AE637859
:1042A000144A003318BF012392F8201099423FF4BA
:1042B000ECAE82F82030012382F82130E5E6D4F814
:1042C0000831012B7FF6E1AE61780A48003118BF52
:1042D0000121BDE8704004F09DBF00BF9E0F00208B
:1042E0006004002090120020341300209803002066
:1042F000BC12002078130020AC140020E013002032
:1043000038140020281501082DE9F041044640F238
:104310000715012600F59277B4F83022B4F832324E
:10432000934255D0A3180132C2F30A0293F83432F3
:10433000A4F83022D4F8382A0132C4F8382A94F884
:104340004D2A42B9C02BE7D1C4F82C2284F84D6A1B
:1043500084F84C2AE0E794F84C8AB8F1000F1AD0A0
:10436000DC2B14D0DD2B14D0D4F83C2A0132C4F855
:104370003C2AD4F82C22AA421FBF511C1219C4F89F
:104380002C1282F82431002384F84C3AC4E7C0236D
:10439000EFE7DB23EDE7C02B0CD0DB2B15D0D4F8F7
:1043A0002C22AA42B8D0511C2244C4F82C1282F804
:1043B0002431B1E7D4F82C32002BADD03946204659
:1043C000FFF730FEC4F82C82A6E784F84C6AA3E716
:1043D000BDE8F0810148FFF7F3BD00BF20050020D4
:1043E00038B500250E4C0F4B182223600E4B294682
:1043F00004F63420C4E90155C4E903352575C4F831
:104400002051C4F82C52C4F8305205F09FFC84F8B7
:104410004C5A84F84D5A84F84E5A84F84F5A38BD95
:104420002005002000380140D543000870B503681E
:10443000194EB3421ED11948846944F40064846162
:104440004FF40064C4600024C460B3421A859985A7
:1044500002D0134A934203D14FF40042A3F8442000
:10446000002201219A819A801A8499821A828522D7
:104470001A8070BD0B488342E7D30B488342E4D8CF
:104480000124C3F3822084400448C5692543C561E3
:10449000046100240461D8E7002C014000100240B0
:1044A0000034014000000040001400401B0143F0B4
:1044B0000803022930B5006801F1FF34DBB220DCCB
:1044C000018BE500AB400B439BB20383114B5200C1
:1044D0009842D2B202D0104B984205D19DF80C30D0
:1044E000012B08BF42F00402002104F10C0300EB91
:1044F00083039980038CA400A2401A4392B20284E1
:1045000030BD0339858BC9008B402B439BB283831D
:10451000DCE700BF002C01400034014001230268A9
:1045200022F0FF0102F00F029340027B2AB98A6851
:104530001A4214BF0120002070478A681A420CBF3B
:10454000012000207047000038B51C4D2B786BBB54
:104550001B4CD4F81031DA0728D504F1F000FFF72E
:10456000DDFF18B3D4F83831DB071FD504F58C70A4
:10457000FFF7D4FFD0B1134CB4F8DE30B4F8DC2030
:10458000013303F01F0393420ED0922003F0B8FAD8
:1045900068B99221B4F8DE30E218013303F01F034A
:1045A00082F8E010A4F8DE3001232B7038BD2046DD
:1045B00002F05FF80028ECD1F6E700BF700F002092
:1045C00028020020781300200E4B1878C0B90E4B3B
:1045D00093F80031082B14D00C4B1B6D952B10D980
:1045E0000B4B23F0FF029168012203F00F0343F00D
:1045F0000A0302FA03F30B420CBF10460020704777
:1046000000207047700F0020781300206004002005
:10461000001C0140064808B590F8A030742B02D168
:10462000A03002F03FFC0022024B1A6008BD00BF20
:1046300078130020740F002010B5FFF7C5FF18B9DC
:10464000BDE81040FFF7E6BF184A13680133136056
:1046500040F2DC52934204D040F23A72934220D0AE
:1046600010BD134CB4F8DE30B4F8DC20013303F095
:104670001F039342F4D0742003F042FA58B9742116
:10468000B4F8DE30E218013303F01F0382F8E010C3
:10469000A4F8DE30E4E7204601F0EBFF0028EED17D
:1046A000DEE7BDE8104001F087B800BF740F0020BE
:1046B0007813002038B5044601F01EFE064BE3FBDC
:1046C000040104460D4601F017FEA04271EB0503FC
:1046D00001DA30BFF7E738BD40420F0038B501249A
:1046E0000A4B0A2023F0FF0503F00F0343F00103F8
:1046F0009C402C61FFF7DEFF6C610A20FFF7DAFFB8
:104700002C619620BDE83840FFF7D4BF001C014063
:10471000044A938D59436423B1FBF3F189B2A2F8A3
:10472000401070470004004013B504460C4B02A82B
:1047300043F0090340F8043D0F21FFF763F9094AEC
:104740006421138A204623F010031B041B0C1382E0
:10475000138C43F480531384FFF7DAFF02B010BDCB
:10476000001001400004004007B5104A0021138CDE
:1047700023F480531B041B0C1384FFF7C9FF0C4B5D
:1047800002A843F0090240F8042D012223F0FF01A2
:1047900003F00F0343F0090302FA03F30B61062150
:1047A000FFF730F903B05DF804FB00BF00040040E0
:1047B00000100140012208B50F4B104903F00F0310
:1047C000486943F0080302FA03F3184212D04B6120
:1047D000BFF35B8F0A4B53E8002F42F0005243E8CF
:1047E00000210029F7D1BFF35B8F01F085FD054B58
:1047F000C3E9000108BD00BF001C014000040140E6
:1048000070130020800F002030B50B7873B18A1C24
:10481000046811F8015F013BDBB22580134411F8F5
:10482000012F9942F1D092B26280F8E730BD0000CA
:10483000464BF0B51A68464D12F0010F01BF40F229
:1048400001526A6001221A60424B9BB043F00E0293
:104850000A9243F00F02CDE90B2343F001020D92BF
:104860003D4A3E4E42F007010E9142F008010F9181
:1048700042F00901109142F00A01119142F00B013E
:10488000129142F00C01139142F00D01149142F08B
:104890000E0142F00F02169243F00802179243F005
:1048A0000902189243F00A02199243F00402069298
:1048B00043F0050243F007031AAF089346F00803DC
:1048C00047F85C3D04461591384608210792099641
:1048D000FFF798F83846FFF7AFF801222049039B0D
:1048E000886803F00F0302FA03F31843886008682E
:1048F00046F0010603430B601A4B1AA840F8583DD6
:1049000000230421CDE900330623FFF7CFFD204625
:10491000FFF72AFF1AA840F8546D0221FFF772F83A
:104920002046FFF7DBFE06AA04230AA80095102103
:10493000FEF794FB0C492046FFF766FF7820FFF74F
:10494000B9FE292223681A801BB0F0BD780F002021
:10495000000000200014014000180140001C01402C
:1049600000040140000400403015010870B5CA88F9
:104970000E884D888C882A2103683444013C1980B4
:10498000A4B2310A5980F0B2210A588059802B21F3
:104990002A44E4B25C80013A1980290A598092B213
:1049A000E9B25980110AD2B259805A8070BD2C23C5
:1049B000006803800023934202D041800133FAE76C
:1049C000704700004FF0C042014B1A60704700BFB3
:1049D0007C0F00200023FF220370427043808380FD
:1049E000C380038183727047054B03EBC00393F8C8
:1049F0002C30052B8ABF034B184653F82000704714
:104A000090120020B0150108F8B500240A4D0B4E95
:104A100005F12C072046FFF7E7FF1823062107EBD7
:104A2000C40201FB045103FB0060013401F04CFBA4
:104A3000062CEFD1F8BD00BF90120020C40F00205B
:104A400030B50024294B8FB043F00302CDE9032396
:104A500043F00102059243F00202069243F0050280
:104A600043F004030893224B079243F00402099297
:104A7000204A42F001020A9243F003020B9243F0F3
:104A8000010243F002030C920D9303AB03EB84008D
:104A900000210134FEF7B6FF0B2CF6D16B46164A07
:104AA000164D1068516803C31189927A19809A7063
:104AB000012107221148FBF747FB21466A460F48B0
:104AC000FBF7D0FB00241DF8041007222846013410
:104AD000FBF7B4FB0B2CF6D1FFF796FF084A2146F3
:104AE0000648FBF7F7FB0FB030BD00BF00100140D8
:104AF00000080140000C0140A2150108B80F002079
:104B0000880F0020F7B5002518271B4C1B4E2846A0
:104B1000FFF76AFF34F8151007FB0060013501F05C
:104B2000FEFA042DF3D12189154801F0F8FA154851
:104B3000618901F0F4FA14484369312B06D9E389FD
:104B4000A28A618A248A0094FBF7FAFDBFF35B8F87
:104B50000E4B53E8002F42F0806243E80021002909
:104B6000F7D10B21044A0A48BFF35B8F03B0BDE8BD
:104B7000F040FBF7AFBB00BF880F0020C40F002040
:104B8000241000203C100020E001002070130020C1
:104B9000B80F002038B51D46837A044673B9012347
:104BA000017083720846FFF71FFFBDF81030607078
:104BB000E380BDF814306280A580238138BD0000F9
:104BC000034B1B7813F0300F0CBF012000207047FF
:104BD000AC0F0020034B1B7813F00F0F0CBF01200C
:104BE00000207047AC0F0020032810B522D8FFF733
:104BF000F1FFF0B91F4CB4F8DE30B4F8DC2001331B
:104C000003F01F03934214D0772002F079FF58B9C4
:104C10007721B4F8DE30E218013303F01F0382F885
:104C2000E010A4F8DE3004E0204601F022FD002868
:104C3000EED110BD04380128FBD8FFF7C1FF0028D2
:104C4000F7D10C4CB4F8DE30B4F8DC20013303F0BB
:104C50001F039342EDD0782002F052FF20B9B4F840
:104C6000DE307821E218D7E7204601F002FD002867
:104C7000F5D1DEE7781300202DE9774B1E4601239E
:104C800088461949914603FA00F20B78044613430B
:104C90000B7001F031FB154DD5E90023821A61EB51
:104CA000030393469C460EA3D3E900235A4573EBB6
:104CB0000C0310DABDF8283042462146CDE90063E6
:104CC0000B484B46FFF766FF2046FFF78DFF01F0CC
:104CD00013FBC5E9000103B0BDE8708BAFF30080A2
:104CE00000CA9A3B00000000AC0F0020B00F00206B
:104CF000A00F002008B50348FFF76CFE0022024B0E
:104D00001A7008BDA00F0020AC0F002008B507489E
:104D1000FCF734FFFFF794FE054A0B210548FBF72B
:104D2000D9FABDE80840FFF7E5BF00BF50040020F6
:104D3000880F0020B80F002008B5FFF7DBFFBDE8A3
:104D40000840014802F0B0B91814002008B5FFF778
:104D50005BFEBDE80840FFF7EFBF38B505460C46DF
:104D60000978FFF791F861782846FFF78DF838BD8C
:104D70001B4B2DE9F0419F7A05460C4667B34FF077
:104D8000C008D1F8083106469A1C01F80380C1F822
:104D9000082119220B445A7016F8021B2046FFF70F
:104DA00073F831462046FFF7D8FF291D2046FFF74C
:104DB000D4FFA91D2046FFF7D0FF204605F10801CA
:104DC000FFF7CBFFD4F8083128465A1CC4F8082155
:104DD00004F80380FFF7FEFD3846BDE8F08100BF10
:104DE000A00F0020F7B5014604464148FFF7C0FF79
:104DF000404B05461F78002F73D000221A70FFF732
:104E0000E9FE18B121463C48FCF70AFF3B4B1A88E3
:104E1000B2F57A6F68D25A88B2F57A6F64D29B681D
:104E2000C026ADF80430D4F8083135489A1CE65451
:104E3000C4F808210E2223445A7001F093F90BF0B4
:104E40008BF800222F4B0AF029FF00222E4B0BF08B
:104E5000DBF80BF0B1FB02AD25F8020D2946204628
:104E6000FFF77BFF294801F0D1F90BF075F800221C
:104E7000274B0BF0C9F80BF09FFB2946ADF8060055
:104E80002046FFF76AFF01A92046FFF766FFD4F826
:104E9000083120495A1CC4F80821E6540D782DB376
:104EA000A654DA1CC4F808210622002623441A4F0F
:104EB0009A70B95D20460136FEF7E6FF162EF8D14E
:104EC000164B20461E88F1B2FEF7DEFF310A20465F
:104ED000FEF7DAFFD4F808315A1CC4F80821C022C2
:104EE000E254284603B0F0BD002399E73D46F8E7B9
:104EF000A00F00209F0F002050040020E0010020A0
:104F0000241000200000F03F00407F403C100020B3
:104F100000408F409E0F0020880F0020FC010020E1
:104F200070B500251A4B1B4A5D601A601A4A1B4C6B
:104F30009A60012329461A46204601F059F80123B8
:104F400004F118001A46194601F052F80123022113
:104F50001A4604F1300001F04BF801234FF0FF3204
:104F6000032104F1480001F043F8FA234FF0FF3227
:104F7000042104F1600001F03BF82B4604F17800B5
:104F80004FF0FF32BDE87040052101F031B800BF9D
:104F9000B80F002000240140054B0008C40F00207A
:104FA000164B10B51A78824221D0154C187094F81F
:104FB0000031082B03D194F89C30152B17D0B4F88E
:104FC000DE30B4F8DC20013303F01F0393420ED02F
:104FD0000C2002F095FD58B90C21B4F8DE30E2182F
:104FE000013303F01F0382F8E010A4F8DE3010BD97
:104FF000034801F03EFB0028EED1F8E754100020F2
:105000007813002008B500F0E3FA00F079FD2A4A91
:105010000220D36943F08053D361284A536823F4B4
:105020008073536000F056FDFBF782FC4022244B56
:105030004FF40071C3F800218022C3F800214FF41F
:105040008072C3F80021C3F800114FF48061C3F8E7
:1050500000114FF40001C3F80011C3F804214FF40C
:105060000062C3F8002120221648C3F8042101F091
:1050700003F91548FBF752F9144800F027FA1448D1
:10508000FEF79AFEFBF770FE124801F0BDFA1248D7
:10509000FCF73EFA1148FCF7BEFFFFF737FEFEF7BC
:1050A00009FD00F0E1FBFBF753FC01F06DF900286E
:1050B000FBD130BFF9E700BF001002400070004094
:1050C00000E000E069630008E00100209012002089
:1050D00020050020781300209803002060040020A1
:1050E000036A13F0040314D00123026822F0FF01C5
:1050F00002F00F029340027B2AB98A681A4214BF59
:105100000120002070478A681A420CBF012000204D
:10511000704718467047000010B50E4C2378C3B98D
:105120000D48FFF7DDFFA0B10C48FFF7D9FF80B1B4
:105130000B48FFF7D5FF60B10A48FFF7D1FF40B138
:105140000948FFF7CDFF20B10120FEF71DFD012327
:10515000237010BD55100020C8020020F00200206E
:105160005002002078020020A002002008B5024969
:105170000BF0A0FB08BD00BF48F951400A88504021
:1051800080EA0010C0B2C30083EA002383EA12233E
:1051900083EA1010088070472DE9F04107466E4CF5
:1051A0006E4D00EB0108B84500F0D4800023E27892
:1051B00017F8016B23700A2A12D8DFE802F00606FE
:1051C0004C5C55636A7583949400FE2E40F0C08059
:1051D0000223E3700023EB704FF0FF33AE702B809F
:1051E0002378012B06D129792289617102B9628164
:1051F0000132228194F805C05948EA7859490CF1E6
:10520000010C80F805C0CA70B4F808C0E278A0F8B4
:1052100008C0C27094F802C02279A0F80AC00271D6
:105220000020022BA07040F086802A4492F809C02A
:10523000127AFE2E42EA0C220A8008BFE3704FF079
:10524000010208BF4FF0FF33A270207012BFE2705E
:10525000E8702B80A7E7294630462371EE70FFF7F0
:105260008DFF0423E370BBE7294630462E71FFF71C
:1052700085FF0323F6E7294630466E71FFF77EFF70
:105280000523EFE729463046AE71FFF777FF062387
:10529000E8E729463046EE71FFF770FFEB780BB96F
:1052A0000823DFE70723DDE7237929465A1C2B442F
:1052B0001E7230462271FFF761FF2279EB789A4225
:1052C0008ED1EDE7EB79284A2946D05CFFF756FFEF
:1052D0002B88DBB29E4214BF0A230923E370237993
:1052E0002B441E727CE70A2A03D02B88B6EB132FBF
:1052F0000DD0022323700123E37023794FF48872C9
:105300002B445E722946174804F015FD68E7012317
:10531000F0E70A2B7FF447AF8B79002B7FF443AF84
:105320001248FDF7CDFC3EE79A2B7FF43CAF1048C6
:1053300000F014FE37E7002B3FF435AF4B79012B1B
:10534000E7D18B79012BEFD10848FDF775FE2AE7ED
:1053500023784FE7BDE8F08182120020721100200F
:105360006611002056100020C815010860040020B6
:1053700054130020F0B50F46CD78C3B0AE1D0446DF
:1053800032460231684604F0D6FC3B880DEB06023B
:105390000DF806301B125370C022D4F808310021DA
:1053A000E2549A1CC4F808210422DB26DC274FF0C3
:1053B000DD0C23445A700835D4F808318D4203F1CE
:1053C000010217D01DF80100C02805D0DB280AD043
:1053D000C4F80821E05404E0E6540233C4F808316C
:1053E000A7540131E8E7E0540233C4F8083104F867
:1053F00002C0F6E7C4F80821C022E25443B0F0BD71
:10540000074BDA68D107FCD4DA68520706D4DB68A8
:1054100013F0100F14BF02200020704701207047C6
:105420000020024038B505460C46FFF7E9FF10B9E9
:105430000120258038BD0020FCE7000038B5054676
:10544000FFF7DEFF98B90B4C236943F00203236199
:105450006561236943F040032361FFF7D1FFB0FA90
:1054600080F02369400923F00203236138BD002046
:10547000FCE700BF002002400022026070474FF6A8
:10548000FF739A422DE9304802D10160BDE83088AF
:105490009B1A541C02685A43D317C4FB012312F50C
:1054A000004B43F1000CBBF1000F7CF1000306DA66
:1054B0004FF6FF7400251BEB040B4CEB050C4FEA79
:1054C0001B4242EA0C420260E0E70000AC220149C4
:1054D00004F031BC00F803082DE9F04190F8AC303D
:1054E00006467BB3184C194B1948636003F18833A7
:1054F0006360FFF7A3FF0546A0B12369144F43F093
:105500000103DFF850802361023E394636F8020F6E
:10551000FFF788FF054640B9FFF772FF236923F0C4
:10552000010323612846BDE8F08102374745ECD1ED
:10553000FFF766FF236923F001032361236943F02A
:105540008003EEE70125EDE70020024023016745D7
:1055500000F80308ACF803082DE9D043124B0446C9
:105560009B78012B17D000F0C7FED4E92C23824290
:105570008B41804689460EDA2046FFF7ADFF08A32F
:10558000D3E9002318EB020649EB03070023C4E923
:105590002C6784F8AC30BDE8D08300BFAFF3008047
:1055A00000CA9A3B0000000060040020CB070CD426
:1055B0004FF6FF72831E08440238984205D033F834
:1055C000021F9142F9D0012070470020704700006F
:1055D00037B50F4C02A844F00F0340F8083D0221F4
:1055E000FEF710FA4FF4004324F0FF0502A844F040
:1055F0000E042B6140F8044D0221FEF703FA4FF42C
:10560000804300226B61034B1A7003B030BD00BFB2
:1056100000100140491300204FF48042154B10B593
:1056200023F0FF031A610222134B144C1A70B4F8D2
:10563000DE30B4F8DC20013303F01F0393420ED0B8
:105640001B2002F05DFA78B91B21B4F8DE30E218B5
:10565000013303F01F0382F8E010A4F8DE3008489D
:10566000BDE81040FEF76ABB204601F002F80028B2
:10567000EAD1F4E70010014049130020781300201C
:10568000200500200000000008B50F4B23F0FF03A9
:10569000DB685B0401D4012008BD0C4B93F800319A
:1056A000082B0BD000F028FE05A3D3E9002382428B
:1056B0008B41F0DB064B93F84E0AEDE70020EBE759
:1056C00000902F50090000000010014078130020C6
:1056D0002005002010B5447B54BB164B1B78012BD2
:1056E0000CD129BB1449154BD1F80C2D02F4E06202
:1056F0001343C1F80C3DBFF34F8FFEE7052917D1C7
:10570000FFF7C2FFA0B10E4B93F800310A2B02D075
:105710002046FEF739FABFF35B8F0A4B53E8002FA0
:1057200042F0007243E800210029F7D1BFF35B8FFC
:1057300010BD00BF4913002000E000E00400FA059E
:1057400078130020701300200A490246087870B5CB
:1057500078B1C0250A26D2F80831D554D4180333BD
:105760006670C2F808310023034AA5700B7082F8F6
:105770004E3A70BD4813002020050020012310B5CB
:10578000094C0A482370FEF7EFFA2178084800F028
:105790003DFF4FF48042074B23F0FF035A614FF463
:1057A00000425A6110BD00BF4913002020050020AF
:1057B000781300200010014010B5FFF765FF58B3C3
:1057C00001221A4B1A481A70FEF716FC1948FFF707
:1057D00083FEFBF7C1FC184B1B78022B23D1174C1F
:1057E000B4F8DE30B4F8DC20013303F01F03934239
:1057F0000ED00D2002F084F978B90D21B4F8DE3016
:10580000E218013303F01F0382F8E010A4F8DE3041
:105810000B4B23F0FF039B6810BD204600F029FFCF
:105820000028EAD1F4E7FFF7A9FFF1E748130020C9
:10583000200500209012002049130020781300203A
:10584000001C014038B5074CA0FB044500F054FD96
:10585000A04271EB050301DA30BFF7E7BDE838403D
:10586000FFF7AABF40420F002DE9F047684E3368AA
:1058700003F0E053B3F1806F03D1BDE8F047FFF7C9
:10588000CBBE644D2B88B3F57A6F0CD26B88B3F521
:105890007A6F08D2AB68013305D100F075FD00289E
:1058A000F8D130BFF6E75C4B23F0FF02916801228C
:1058B00003F00F0343F00A0302FA03F30B4252D042
:1058C000346884F08054C4F300743368DB0005D579
:1058D00048F26572514B9B889A42CED0002C64D01E
:1058E0004F4D504803F0DCF829784F4800F08EFE09
:1058F0002B78022B01D0FFF78FFE41A7D7E9006775
:105900000FF20419D9E90089484D00F0F5FC8642F0
:1059100077EB01030FDA01232A6822F0FF0102F07E
:105920000F0293402A7B002A41D18A681A4214BF91
:1059300001230023D3B13E4B93F84EAABAF1000FD6
:105940009BD13A48FBF70EF9804579EB010334DA35
:10595000FFF762FE2B6A504643F008032B62BDE856
:10596000F047FEF711B900F0C3F818B1BDE8F047F1
:10597000FFF722BF2B88B3F57A6F06D26B88B3F599
:105980007A6F02D2AB68102B0DD8264803F096F838
:10599000234B2548197800F039FEBDE8F0474FF455
:1059A0007A60FFF74FBF04468FE70024A5E78A68B7
:1059B0001A420CBF01230023BCE7BCB901232A68AB
:1059C00022F0FF0102F00F0293402A7B82B98A681D
:1059D0001A4214BF0123002343B9124803F024F8EC
:1059E0000F4B1148197800F011FE012430BF8CE7ED
:1059F0008A681A420CBF01230023EDE7AFF3008051
:105A0000FF276BEE00000000FFBAEEA000000000D0
:105A10004C130020E0010020001C0140006C0040FD
:105A2000491300200C1400207813002028020020C5
:105A3000200500200A4B93F84E3A7BB148F265727C
:105A4000084B09499A80D1F80C2D084B02F4E0620A
:105A50001343C1F80C3DBFF34F8FFEE7704700BF03
:105A600020050020006C004000E000E00400FA0582
:105A7000012238B5164C216821F0FF0001F00F011A
:105A80008A40217B8368B1B9134214BF01230023EC
:105A9000B3B900F031FCD4E90623821A61EB0303A9
:105AA00014461D4608A3D3E90023A242AB41B4BF6C
:105AB0000120002038BD13420CBF01230023E7E77B
:105AC0000020F7E7AFF3008000F902950000000026
:105AD00028020020054A40011368C0B223F0E00309
